{
    "contractName": "AuctionManager",
    "abi": [
        {
            "anonymous": false,
            "inputs": [
                {
                    "indexed": false,
                    "internalType": "string",
                    "name": "serverName",
                    "type": "string"
                }
            ],
            "name": "AuctionTupleResult",
            "type": "event"
        },
        {
            "anonymous": false,
            "inputs": [
                {
                    "indexed": false,
                    "internalType": "bool",
                    "name": "bbb",
                    "type": "bool"
                }
            ],
            "name": "DebugBool",
            "type": "event"
        },
        {
            "anonymous": false,
            "inputs": [
                {
                    "indexed": false,
                    "internalType": "string",
                    "name": "text",
                    "type": "string"
                }
            ],
            "name": "DebugEvent",
            "type": "event"
        },
        {
            "anonymous": false,
            "inputs": [
                {
                    "indexed": false,
                    "internalType": "uint256",
                    "name": "number",
                    "type": "uint256"
                }
            ],
            "name": "DebugUint",
            "type": "event"
        },
        {
            "anonymous": false,
            "inputs": [
                {
                    "indexed": false,
                    "internalType": "uint256",
                    "name": "id",
                    "type": "uint256"
                },
                {
                    "indexed": false,
                    "internalType": "uint256",
                    "name": "biddersCount",
                    "type": "uint256"
                }
            ],
            "name": "MobileTaskRegistered",
            "type": "event"
        },
        {
            "anonymous": false,
            "inputs": [
                {
                    "indexed": false,
                    "internalType": "string",
                    "name": "name",
                    "type": "string"
                },
                {
                    "indexed": false,
                    "internalType": "uint256",
                    "name": "biddersCount",
                    "type": "uint256"
                }
            ],
            "name": "ServerNodeRegistered",
            "type": "event"
        },
        {
            "inputs": [],
            "name": "Test",
            "outputs": [],
            "stateMutability": "nonpayable",
            "type": "function"
        },
        {
            "inputs": [
                {
                    "internalType": "uint256",
                    "name": "tupleID",
                    "type": "uint256"
                }
            ],
            "name": "auctionResultTuple",
            "outputs": [],
            "stateMutability": "nonpayable",
            "type": "function"
        },
        {
            "inputs": [
                {
                    "internalType": "uint256",
                    "name": "id",
                    "type": "uint256"
                },
                {
                    "internalType": "uint256",
                    "name": "cpuLength",
                    "type": "uint256"
                },
                {
                    "internalType": "uint256",
                    "name": "nwLength",
                    "type": "uint256"
                },
                {
                    "internalType": "uint256",
                    "name": "outputSize",
                    "type": "uint256"
                },
                {
                    "internalType": "uint256",
                    "name": "deadline",
                    "type": "uint256"
                },
                {
                    "internalType": "uint256",
                    "name": "offer",
                    "type": "uint256"
                },
                {
                    "internalType": "uint256",
                    "name": "ueUpBW",
                    "type": "uint256"
                },
                {
                    "internalType": "uint256",
                    "name": "xCoordinate",
                    "type": "uint256"
                },
                {
                    "internalType": "uint256",
                    "name": "yCoordinate",
                    "type": "uint256"
                },
                {
                    "internalType": "uint256",
                    "name": "ueTransmissionPower",
                    "type": "uint256"
                },
                {
                    "internalType": "uint256",
                    "name": "ueIdlePower",
                    "type": "uint256"
                }
            ],
            "name": "registerMobileTask",
            "outputs": [],
            "stateMutability": "nonpayable",
            "type": "function"
        },
        {
            "inputs": [
                {
                    "internalType": "string",
                    "name": "name",
                    "type": "string"
                },
                {
                    "internalType": "uint256",
                    "name": "mips",
                    "type": "uint256"
                },
                {
                    "internalType": "uint256",
                    "name": "xCoordinate",
                    "type": "uint256"
                },
                {
                    "internalType": "uint256",
                    "name": "yCoordinate",
                    "type": "uint256"
                },
                {
                    "internalType": "uint256",
                    "name": "offer",
                    "type": "uint256"
                }
            ],
            "name": "registerServerNode",
            "outputs": [],
            "stateMutability": "nonpayable",
            "type": "function"
        }
    ],
    "bytecode": "608060405234801561001057600080fd5b50613d43806100206000396000f3fe608060405234801561001057600080fd5b506004361061004c5760003560e01c80630f7e14b314610051578063966f63af14610066578063a163a62414610079578063e673daf414610081575b600080fd5b61006461005f36600461357d565b610094565b005b61006461007436600461349a565b6103e5565b6100646109d8565b61006461008f366004613565565b610b3d565b6100c9604051806040016040528060148152602001732922a3a4a9aa22a9102a2aa8262297171717171760611b815250610c36565b6100d243610c7c565b6040518061016001604052808c81526020018b81526020018a815260200189815260200188815260200187815260200186815260200185815260200184815260200183815260200182815250600260030160008d8152602001908152602001600020600082015181600001556020820151816001015560408201518160020155606082015181600301556080820151816004015560a0820151816005015560c0820151816006015560e082015181600701556101008201518160080155610120820151816009015561014082015181600a0155905050600280018b908060018154018082558091505060019003906000526020600020016000909190919091505561026b600260030160008d81526020019081526020016000206040518061016001604052908160008201548152602001600182015481526020016002820154815260200160038201548152602001600482015481526020016005820154815260200160068201548152602001600782015481526020016008820154815260200160098201548152602001600a82015481525050610cc1565b610303600260030160008d81526020019081526020016000206040518061016001604052908160008201548152602001600182015481526020016002820154815260200160038201548152602001600482015481526020016005820154815260200160068201548152602001600782015481526020016008820154815260200160098201548152602001600a82015481525050610f38565b61039b600260030160008d81526020019081526020016000206040518061016001604052908160008201548152602001600182015481526020016002820154815260200160038201548152602001600482015481526020016005820154815260200160068201548152602001600782015481526020016008820154815260200160098201548152602001600a820154815250506111ab565b600454604080518d815260208101929092527f43d87be5c821ce9205c5308d48e7c5ff9809ec56e0d83731a32cf20c0abea8fc910160405180910390a15050505050505050505050565b604051806101c001604052808681526020016000815260200160008152602001600081526020016000815260200185815260200160008152602001600081526020016000815260200160008152602001600081526020018481526020018381526020018281525060026006018660405161045f919061361a565b90815260200160405180910390206000820151816000019080519060200190610489929190613386565b506020820151816001015560408201518160020155606082015181600301556080820151816004015560a0820151816005015560c0820151816006015560e082015181600701556101008201518160080155610120820151816009015561014082015181600a015561016082015181600b015561018082015181600c01556101a082015181600d015590505061054a604051806040016040528060148152602001732922a3a4a9aa22a924a72390209029a2a92b22a960611b815250610c36565b61055343610c7c565b600780546001810182556000919091528551610596917fa66cc928b5edb82af9bd49922954155ab7b0942694bea4ce44661d9a8736c68801906020880190613386565b506106e06002600601866040516105ad919061361a565b9081526020016040518091039020604051806101c00160405290816000820180546105d790613b9b565b80601f016020809104026020016040519081016040528092919081815260200182805461060390613b9b565b80156106505780601f1061062557610100808354040283529160200191610650565b820191906000526020600020905b81548152906001019060200180831161063357829003601f168201915b50505050508152602001600182015481526020016002820154815260200160038201548152602001600482015481526020016005820154815260200160068201548152602001600782015481526020016008820154815260200160098201548152602001600a8201548152602001600b8201548152602001600c8201548152602001600d82015481525050611372565b836002600801866040516106f4919061361a565b9081526040519081900360200181209190915561084c9060089061071990889061361a565b9081526020016040518091039020604051806101c001604052908160008201805461074390613b9b565b80601f016020809104026020016040519081016040528092919081815260200182805461076f90613b9b565b80156107bc5780601f10610791576101008083540402835291602001916107bc565b820191906000526020600020905b81548152906001019060200180831161079f57829003601f168201915b50505050508152602001600182015481526020016002820154815260200160038201548152602001600482015481526020016005820154815260200160068201548152602001600782015481526020016008820154815260200160098201548152602001600a8201548152602001600b8201548152602001600c8201548152602001600d820154815250506114ab565b610995600260060186604051610862919061361a565b9081526020016040518091039020604051806101c001604052908160008201805461088c90613b9b565b80601f01602080910402602001604051908101604052809291908181526020018280546108b890613b9b565b80156109055780601f106108da57610100808354040283529160200191610905565b820191906000526020600020905b8154815290600101906020018083116108e857829003601f168201915b50505050508152602001600182015481526020016002820154815260200160038201548152602001600482015481526020016005820154815260200160068201548152602001600782015481526020016008820154815260200160098201548152602001600a8201548152602001600b8201548152602001600c8201548152602001600d820154815250506115e4565b6007546040517f320e32077009db58fcf01625ed48138c13ce7e8f383500cc4dab58f75191ee16916109c99188919061378a565b60405180910390a15050505050565b610a0e6040518060400160405280601581526020017468656c6c6f206f6f6f6f6f6f6f6f6f6f6f6f6f6f6f60581b815250610c36565b610a446040518060400160405280601581526020017468656c6c6f206f6f6f6f6f6f6f6f6f6f6f6f6f6f6f60581b815250610c36565b610a7a6040518060400160405280601581526020017468656c6c6f206f6f6f6f6f6f6f6f6f6f6f6f6f6f6f60581b815250610c36565b610ab06040518060400160405280601581526020017468656c6c6f206f6f6f6f6f6f6f6f6f6f6f6f6f6f6f60581b815250610c36565b610ae66040518060400160405280601581526020017468656c6c6f206f6f6f6f6f6f6f6f6f6f6f6f6f6f6f60581b815250610c36565b7f56f074d292557f2e3c567d982816e0fb5b72100ff196892f8fbd23b8a9073679604051610b33906020808252600b908201526a12195b1b1bc815dbdc9b1960aa1b604082015260600190565b60405180910390a1565b610b5e6040518060600160405280603c8152602001613c2e603c9139610c36565b610b6743610c7c565b6000818152600e602052604090205460ff16610bc357610bb36040518060400160405280601581526020017418d85b18dd5b185d1a5b99c81d1a081c995cdd5b1d605a1b815250610c36565b610bbe6002826116ff565b610bee565b610bee6040518060400160405280600a8152602001691a1859081c995cdd5b1d60b21b815250610c36565b6000818152600c60205260409081902090517fde9a0fa21e2768362f2f416d0c5a00df95d7fc4a6e7c260e6eb437ef666e5d3191610c2b916137fc565b60405180910390a150565b610c7981604051602401610c4a91906136a5565b60408051601f198184030181529190526020810180516001600160e01b031663104c13eb60e21b1790526124f1565b50565b610c7981604051602401610c9291815260200190565b60408051601f198184030181529190526020810180516001600160e01b031663f5b1bba960e01b1790526124f1565b60005b600754811015610f34576000604051806040016040528060026005018481548110610cff57634e487b7160e01b600052603260045260246000fd5b906000526020600020018054610d1490613b9b565b80601f0160208091040260200160405190810160405280929190818152602001828054610d4090613b9b565b8015610d8d5780601f10610d6257610100808354040283529160200191610d8d565b820191906000526020600020905b815481529060010190602001808311610d7057829003601f168201915b50505050508152602001610f0e85600260060160026005018781548110610dc457634e487b7160e01b600052603260045260246000fd5b90600052602060002001604051610ddb9190613636565b9081526020016040518091039020604051806101c0016040529081600082018054610e0590613b9b565b80601f0160208091040260200160405190810160405280929190818152602001828054610e3190613b9b565b8015610e7e5780601f10610e5357610100808354040283529160200191610e7e565b820191906000526020600020905b815481529060010190602001808311610e6157829003601f168201915b50505050508152602001600182015481526020016002820154815260200160038201548152602001600482015481526020016005820154815260200160068201548152602001600782015481526020016008820154815260200160098201548152602001600a8201548152602001600b8201548152602001600c8201548152602001600d82015481525050612512565b8152509050610f21818460000151612882565b5080610f2c81613bd0565b915050610cc4565b5050565b60005b600754811015610f345760006040518060400160405280846000015181526020016110d3600260060160026005018681548110610f8857634e487b7160e01b600052603260045260246000fd5b90600052602060002001604051610f9f9190613636565b9081526020016040518091039020604051806101c0016040529081600082018054610fc990613b9b565b80601f0160208091040260200160405190810160405280929190818152602001828054610ff590613b9b565b80156110425780601f1061101757610100808354040283529160200191611042565b820191906000526020600020905b81548152906001019060200180831161102557829003601f168201915b50505050508152602001600182015481526020016002820154815260200160038201548152602001600482015481526020016005820154815260200160068201548152602001600782015481526020016008820154815260200160098201548152602001600a8201548152602001600b8201548152602001600c8201548152602001600d8201548152505086612c0c565b8152509050611198816002600501848154811061110057634e487b7160e01b600052603260045260246000fd5b90600052602060002001805461111590613b9b565b80601f016020809104026020016040519081016040528092919081815260200182805461114190613b9b565b801561118e5780601f106111635761010080835404028352916020019161118e565b820191906000526020600020905b81548152906001019060200180831161117157829003601f168201915b5050505050612cb8565b50806111a381613bd0565b915050610f3b565b60005b600754811015610f345760078054600091600891849081106111e057634e487b7160e01b600052603260045260246000fd5b906000526020600020016040516111f79190613636565b9081526020016040518091039020604051806101c001604052908160008201805461122190613b9b565b80601f016020809104026020016040519081016040528092919081815260200182805461124d90613b9b565b801561129a5780601f1061126f5761010080835404028352916020019161129a565b820191906000526020600020905b81548152906001019060200180831161127d57829003601f168201915b50505050508152602001600182015481526020016002820154815260200160038201548152602001600482015481526020016005820154815260200160068201548152602001600782015481526020016008820154815260200160098201548152602001600a8201548152602001600b8201548152602001600c8201548152602001600d8201548152505090506113318184613078565b8151604051600b916113429161361a565b9081526040805160209281900383019020865160009081529252902055508061136a81613bd0565b9150506111ae565b60005b600454811015610f3457600060405180604001604052806002800184815481106113af57634e487b7160e01b600052603260045260246000fd5b9060005260206000200154815260200161148585600260030160006002800188815481106113ed57634e487b7160e01b600052603260045260246000fd5b906000526020600020015481526020019081526020016000206040518061016001604052908160008201548152602001600182015481526020016002820154815260200160038201548152602001600482015481526020016005820154815260200160068201548152602001600782015481526020016008820154815260200160098201548152602001600a82015481525050612c0c565b8152509050611498818460000151612cb8565b50806114a381613bd0565b915050611375565b60005b600454811015610f34576000604051806040016040528084600001518152602001611595600260030160006002800187815481106114fc57634e487b7160e01b600052603260045260246000fd5b906000526020600020015481526020019081526020016000206040518061016001604052908160008201548152602001600182015481526020016002820154815260200160038201548152602001600482015481526020016005820154815260200160068201548152602001600782015481526020016008820154815260200160098201548152602001600a8201548152505086612512565b81525090506115d1816002800184815481106115c157634e487b7160e01b600052603260045260246000fd5b9060005260206000200154612882565b50806115dc81613bd0565b9150506114ae565b60005b600454811015610f345760006002600301600060028001848154811061161d57634e487b7160e01b600052603260045260246000fd5b906000526020600020015481526020019081526020016000206040518061016001604052908160008201548152602001600182015481526020016002820154815260200160038201548152602001600482015481526020016005820154815260200160068201548152602001600782015481526020016008820154815260200160098201548152602001600a8201548152505090506116bc8382613078565b8351604051600b916116cd9161361a565b9081526040805160209281900383019020935160009081529390915290912055806116f781613bd0565b9150506115e7565b8060005b60058401548110156117ba578360080184600501828154811061173657634e487b7160e01b600052603260045260246000fd5b9060005260206000200160405161174d9190613636565b908152602001604051809103902054600085600501838154811061178157634e487b7160e01b600052603260045260246000fd5b906000526020600020016040516117989190613636565b90815260405190819003602001902055806117b281613bd0565b915050611703565b506117e060405180604001604052806004815260200163151154d560e21b815250610c36565b61180b6040518060400160405280600981526020016803a3ab83632a4a21d160bd1b81525083613142565b6000600190506000806040518060200160405280600081525090506118576040518060400160405280601081526020016f7768657265206974206661696c64733f60801b815250610c36565b600586015461186590610c7c565b600286015461187390610c7c565b60005b6005870154811015611f53576118a5604051806060016040528060218152602001613ced602191398783613187565b60008681526004880160205260409020546118bf90610c7c565b60008681526004880160205260409020805461190b9190839081106118f457634e487b7160e01b600052603260045260246000fd5b906000526020600020906002020160010154610c7c565b6000868152600488016020526040812080548390811061193b57634e487b7160e01b600052603260045260246000fd5b9060005260206000209060020201600001805461195790613b9b565b80601f016020809104026020016040519081016040528092919081815260200182805461198390613b9b565b80156119d05780601f106119a5576101008083540402835291602001916119d0565b820191906000526020600020905b8154815290600101906020018083116119b357829003601f168201915b50505050509050611a056040518060400160405280600c81526020016b039b2b93b32b92730b6b29d160a51b815250826131ce565b60008860090182604051611a19919061361a565b90815260200160405180910390206000016000898152602001908152602001600020549050611a896040518060400160405280600a81526020016903932b89036b4b8399d160b51b81525082600085604051611a75919061361a565b908152602001604051809103902054613187565b600082604051611a99919061361a565b9081526020016040518091039020548111158015611aef5750600088815260038a0160205260409081902060050154905160068b0190611ada90859061361a565b9081526020016040518091039020600d015411155b15611f3e5780600083604051611b05919061361a565b908152602001604051809103902054611b1e9190613b3d565b600083604051611b2e919061361a565b908152602001604051809103902081905550611b9d6040518060400160405280601881526020017f6e6577207365727665722071756f74612061667465723a200000000000000000815250600084604051611b89919061361a565b908152602001604051809103902054613142565b60008881526001602090815260409091208351611bbc92850190613386565b506000955060005b60028a0154811015611c785760008a60070184604051611be4919061361a565b90815260200160405180910390208281548110611c1157634e487b7160e01b600052603260045260246000fd5b60009182526020808320600290920290910154808352600e90915260409091205490915060ff16611c6557808b600d0185604051611c4f919061361a565b9081526040519081900360200190205550611c78565b5080611c7081613bd0565b915050611bc4565b50611caf60405180604001604052806015815260200174747279696e6720746f2066696e6420636972636c6560581b815250610c36565b815b611ce36040518060400160405280601081526020016f039b2b93b32b92937bab73234b7339d160851b815250826131ce565b89600d0181604051611cf5919061361a565b908152602001604051809103902054600014611f0757611d496040518060400160405280601081526020016f03a3ab83632903937bab73234b7339d160851b8152508b600d0183604051611b89919061361a565b6000600160008c600d0184604051611d61919061361a565b90815260200160405180910390205481526020019081526020016000208054611d8990613b9b565b90501115611f0757600160008b600d0183604051611da7919061361a565b90815260200160405180910390205481526020019081526020016000208054611dcf90613b9b565b80601f0160208091040260200160405190810160405280929190818152602001828054611dfb90613b9b565b8015611e485780601f10611e1d57610100808354040283529160200191611e48565b820191906000526020600020905b815481529060010190602001808311611e2b57829003601f168201915b50505050509050611e7960405180604001604052806007815260200166636f6d7061726560c81b8152508285613213565b82604051602001611e8a919061361a565b6040516020818303038152906040528051906020012081604051602001611eb1919061361a565b604051602081830303815290604052805190602001201415611f0257611ef6604051806040016040528060088152602001677761732073616d6560c01b815250610c36565b60019550829450611f07565b611cb1565b611f366040518060400160405280600d81526020016c03337bab73221b4b931b6329d1609d1b8152508761325a565b505050611f53565b50508080611f4b90613bd0565b915050611876565b5081156123bb57600086600d0182604051611f6e919061361a565b9081526020016040518091039020549050611fbd6040518060400160405280601e81526020017f41737369676e696e6720666f756e64696e67732068657265203d3d3d3d200000815250610c36565b6000818152600160209081526040808320600a8b019092529091208154909190611fe690613b9b565b611ff192919061340a565b50600b870180546001818101835560009283526020808420909201849055838352600c8a0182526040808420805460ff191690921790915580518082018252601081526f020a9a9a4a3a2a722102a2aa826229d160851b81840152848452600a8b0190925290912080546120ee9291849161206b90613b9b565b80601f016020809104026020016040519081016040528092919081815260200182805461209790613b9b565b80156120e45780601f106120b9576101008083540402835291602001916120e4565b820191906000526020600020905b8154815290600101906020018083116120c757829003601f168201915b505050505061329f565b600081815260016020526040808220905160098a019161210d91613636565b90815260408051918290036020908101832060008b815290825282812054868252600190925291909120909250829160088b019161214a91613636565b9081526020016040518091039020546121639190613b3d565b60008381526001602052604090819020905160088b019161218391613636565b9081526020016040518091039020819055506122896040518060400160405280600b81526020016a02a32b6b81028baba309d160ad1b8152506001600085815260200190815260200160002080546121da90613b9b565b80601f016020809104026020016040519081016040528092919081815260200182805461220690613b9b565b80156122535780601f1061222857610100808354040283529160200191612253565b820191906000526020600020905b81548152906001019060200180831161223657829003601f168201915b5050506000878152600160205260408082209051919350612275925090613636565b9081526020016040518091039020546132e6565b6122d86040518060400160405280600e81526020016d028aaaa209021a420a723a2a21d160951b815250828a60080160016000878152602001908152602001600020604051611a759190613636565b826040516020016122e9919061361a565b60408051601f19818403018152828252805160209182012060008681526001835292909220919261231b929101613636565b60405160208183030381529060405280519060200120141561237b576123756040518060400160405280601881526020017f627265616b696e672074686520636972636c6520686572650000000000000000815250610c36565b506123b2565b600082815260016020526040908190209051600d8a019161239b91613636565b908152602001604051809103902054915050611fbd565b505050506124a5565b821561246c576123ff6040518060400160405280601a81526020017f205455504c45206e6f742061737369676e656420617420616c6c000000000000815250610c36565b600b860180546001818101835560009283526020808420909201889055878352600c890182526040808420805460ff19169092179091558051808201825260088152671393d51193d5539160c21b818401908152898552600a8b01909352922091516123b2929190613386565b600085815260016020526040908190209051600d88019161248c91613636565b908152602001604051809103902054945050505061180b565b6000818152600c8401602052604090205460ff16156124c357505050565b6124e46040518060600160405280602c8152602001613c95602c9139610c36565b8091506117e0565b505050565b80516a636f6e736f6c652e6c6f67602083016000808483855afa5050505050565b60008060028084610180015186610100015161252e9190613afe565b6125389190613a4d565b60028561016001518760e0015161254f9190613afe565b6125599190613a4d565b612563919061387d565b61256d9190613a4d565b9050600061275e8286610120015164746a52880061258b9190613a5c565b61259591906138d6565b6125a090600161387d565b604080517ff8f9cbfae6cc78fbefe7cdc3a1793dfcf4f0e8bbd8cec470b6a28a7a5a3e1efd81527ff5ecf1b3e9debc68e1d9cfabc5997135bfb7a7a3938b7b606b5b4b3f2f1f0ffe60208201527ff6e4ed9ff2d6b458eadcdf97bd91692de2d4da8fd2d0ac50c6ae9a8272523616818301527fc8c0b887b0a8a4489c948c7f847c6125746c645c544c444038302820181008ff60608201527ff7cae577eec2a03cf3bad76fb589591debb2dd67e0aa9834bea6925f6a4a2e0e60808201527fe39ed557db96902cd38ed14fad815115c786af479b7e8324736353433727170760a08201527fc976c13bb96e881cb166a933a55e490d9d56952b8d4e801485467d236242260660c08201527f753a6d1b65325d0c552a4d1345224105391a310b29122104190a11030902010060e0820152610100808201909252600160f81b6001600160801b68010000000000000000640100000000620100006010600460026000198c019081041790810417908104178881041790810417908104179081041790810417017e818283848586878898a8b8c8d8e8f929395969799a9b9d9e9faaeb6bedeeff0281900460ff039091015104600160ff1b909211020190565b905060008560c00151826127729190613adf565b604087015161278490620f4240613adf565b61278e9190613904565b905060008560a001518760200151620f42406127aa9190613adf565b6127b49190613904565b90506000876080015182846127c991906138be565b6127d39190613904565b9050600088610140015189610120015160646127ef9190613adf565b6127f991906138be565b89608001516128089190613adf565b6101408a01516128189085613adf565b6101208b01516128289087613adf565b612833906064613adf565b61283d91906138be565b6128479190613904565b90506000886101a001516103e861285e9190613adf565b61286883856138be565b61287291906138be565b9750505050505050505b92915050565b6128a46040518060600160405280602b8152602001613c6a602b913982613142565b6128db6040518060400160405280600c81526020016b0313637b1b59024a723279d160a51b815250836000015184602001516132e6565b600081815260066020908152604082208054600181018255908352918190208451805186946002029092019261291692849290910190613386565b5060209182015160019182015560008381526006909252604090912054141561296f57610f34604051806040016040528060158152602001741a5b9a5d1a585b081c1c9a5bdc9a5d1e4818dbdcdd605a1b815250610c36565b60005b60008281526006602052604090205461298d90600190613b3d565b811015612a7c57612a1a6040518060400160405280601a81526020017f696e646578206f6620736572766572207072696f726974793a2000000000000081525082600260040160008681526020019081526020016000208481548110612a0357634e487b7160e01b600052603260045260246000fd5b906000526020600020906002020160010154613187565b6000828152600660205260409020805482908110612a4857634e487b7160e01b600052603260045260246000fd5b90600052602060002090600202016001015483602001511015612a6a57612a7c565b80612a7481613bd0565b915050612972565b612ab460405180604001604052806016815260200175036bab9ba1034b739b2b93a1030ba1034b73232bc1d160551b81525082613142565b600082815260066020526040812054612acf90600190613b3d565b90505b81811115612b9d576000838152600660205260409020612af3600183613b3d565b81548110612b1157634e487b7160e01b600052603260045260246000fd5b9060005260206000209060020201600260040160008581526020019081526020016000208281548110612b5457634e487b7160e01b600052603260045260246000fd5b90600052602060002090600202016000820181600001908054612b7690613b9b565b612b8192919061340a565b5060019182015491015580612b9581613b84565b915050612ad2565b506000828152600660205260409020805484919083908110612bcf57634e487b7160e01b600052603260045260246000fd5b90600052602060002090600202016000820151816000019080519060200190612bf9929190613386565b5060208201518160010155905050505050565b6000806002846101800151846101000151612c279190613afe565b612c319190613a4d565b60028561016001518560e00151612c489190613afe565b612c529190613a4d565b612c5c919061387d565b90506000612c698261332d565b612c7590610935613adf565b60a0850151612c86906103e8613adf565b612c9390620f42406138be565b612c9d9190613b3d565b6fffffffffffffffffffffffffffffffff1695945050505050565b612cda6040518060600160405280602c8152602001613cc1602c9139826131ce565b612d116040518060400160405280600c81526020016b0313637b1b59024a723279d160a51b81525083600001518460200151613187565b604051600990612d2290839061361a565b9081526040519081900360209081018220805460018181018355600092835291839020865160029092020190815591850151910155600990612d6590839061361a565b9081526040519081900360200190205460011415612db357610f34604051806040016040528060158152602001741a5b9a5d1a585b081c1c9a5bdc9a5d1e4818dbdcdd605a1b815250610c36565b60005b6001600260070183604051612dcb919061361a565b90815260405190819003602001902054612de59190613b3d565b811015612ed757612e666040518060400160405280601a81526020017f696e646578206f6620736572766572207072696f726974793a2000000000000081525082600260070185604051612e39919061361a565b90815260200160405180910390208481548110612a0357634e487b7160e01b600052603260045260246000fd5b604051600990612e7790849061361a565b90815260200160405180910390208181548110612ea457634e487b7160e01b600052603260045260246000fd5b906000526020600020906002020160010154836020015110612ec557612ed7565b80612ecf81613bd0565b915050612db6565b612f0f60405180604001604052806016815260200175036bab9ba1034b739b2b93a1030ba1034b73232bc1d160551b81525082613142565b60006001600260070184604051612f26919061361a565b90815260405190819003602001902054612f409190613b3d565b90505b8181111561301257604051600990612f5c90859061361a565b908152604051908190036020019020612f76600183613b3d565b81548110612f9457634e487b7160e01b600052603260045260246000fd5b9060005260206000209060020201600260070184604051612fb5919061361a565b90815260200160405180910390208281548110612fe257634e487b7160e01b600052603260045260246000fd5b6000918252602090912082546002909202019081556001918201549101558061300a81613b84565b915050612f43565b5082600260070183604051613027919061361a565b9081526020016040518091039020828154811061305457634e487b7160e01b600052603260045260246000fd5b60009182526020918290208351600290920201908155910151600190910155505050565b6000806002808561018001518561010001516130949190613afe565b61309e9190613a4d565b60028661016001518660e001516130b59190613afe565b6130bf9190613a4d565b6130c9919061387d565b6130d39190613a4d565b905060006130f18285610120015164746a52880061258b9190613a5c565b905060008460c00151826131059190613adf565b85604001516131149190613904565b905060008186608001516131289190613b3d565b86602001516131379190613904565b979650505050505050565b610f34828260405160240161315892919061378a565b60408051601f198184030181529190526020810180516001600160e01b03166309710a9d60e41b1790526124f1565b6124ec83838360405160240161319f939291906137d7565b60408051601f198184030181529190526020810180516001600160e01b031663969cdd0360e01b1790526124f1565b610f3482826040516024016131e49291906136e3565b60408051601f198184030181529190526020810180516001600160e01b0316634b5c427760e01b1790526124f1565b6124ec83838360405160240161322b93929190613711565b60408051601f198184030181529190526020810180516001600160e01b0316632ced7cef60e01b1790526124f1565b610f3482826040516024016132709291906136bf565b60408051601f198184030181529190526020810180516001600160e01b031663c3b5563560e01b1790526124f1565b6124ec8383836040516024016132b7939291906137ac565b60408051601f198184030181529190526020810180516001600160e01b031663a3f5c73960e01b1790526124f1565b6124ec8383836040516024016132fe93929190613754565b60408051601f198184030181529190526020810180516001600160e01b031663f362ca5960e01b1790526124f1565b600080600261333d8460016138be565b6133479190613904565b90508291505b81811015613380579050806002816133658186613904565b61336f91906138be565b6133799190613904565b905061334d565b50919050565b82805461339290613b9b565b90600052602060002090601f0160209004810192826133b457600085556133fa565b82601f106133cd57805160ff19168380011785556133fa565b828001600101855582156133fa579182015b828111156133fa5782518255916020019190600101906133df565b50613406929150613485565b5090565b82805461341690613b9b565b90600052602060002090601f01602090048101928261343857600085556133fa565b82601f1061344957805485556133fa565b828001600101855582156133fa57600052602060002091601f016020900482015b828111156133fa57825482559160010191906001019061346a565b5b808211156134065760008155600101613486565b600080600080600060a086880312156134b1578081fd5b853567ffffffffffffffff808211156134c8578283fd5b818801915088601f8301126134db578283fd5b8135818111156134ed576134ed613c17565b604051601f8201601f19908116603f0116810190838211818310171561351557613515613c17565b816040528281528b602084870101111561352d578586fd5b826020860160208301379182016020908101959095525099928801359850505060408601359560608101359550608001359350915050565b600060208284031215613576578081fd5b5035919050565b60008060008060008060008060008060006101608c8e03121561359e578586fd5b505089359b60208b01359b5060408b01359a60608101359a506080810135995060a0810135985060c0810135975060e0810135965061010081013595506101208101359450610140013592509050565b60008151808452613606816020860160208601613b54565b601f01601f19169290920160200192915050565b6000825161362c818460208701613b54565b9190910192915050565b600080835461364481613b9b565b6001828116801561365c576001811461366d57613699565b60ff19841687528287019450613699565b8786526020808720875b858110156136905781548a820152908401908201613677565b50505082870194505b50929695505050505050565b6020815260006136b860208301846135ee565b9392505050565b6040815260006136d260408301856135ee565b905082151560208301529392505050565b6040815260006136f660408301856135ee565b828103602084015261370881856135ee565b95945050505050565b60608152600061372460608301866135ee565b828103602084015261373681866135ee565b9050828103604084015261374a81856135ee565b9695505050505050565b60608152600061376760608301866135ee565b828103602084015261377981866135ee565b915050826040830152949350505050565b60408152600061379d60408301856135ee565b90508260208301529392505050565b6060815260006137bf60608301866135ee565b846020840152828103604084015261374a81856135ee565b6060815260006137ea60608301866135ee565b60208301949094525060400152919050565b6000602080835281845461380f81613b9b565b8084870152604060018084166000811461383057600181146138445761386f565b60ff1985168984015260608901955061386f565b898852868820885b858110156138675781548b820186015290830190880161384c565b8a0184019650505b509398975050505050505050565b600080821280156001600160ff1b038490038513161561389f5761389f613beb565b600160ff1b83900384128116156138b8576138b8613beb565b50500190565b600082198211156138d1576138d1613beb565b500190565b6000826138e5576138e5613c01565b600160ff1b8214600019841416156138ff576138ff613beb565b500590565b60008261391357613913613c01565b500490565b80825b600180861161392a575061395d565b6001600160ff1b0382900482111561394457613944613beb565b8086161561395157918102915b9490941c93800261391b565b935093915050565b600082801561397b57600181146139855761398e565b600191505061287c565b8291505061287c565b508161399c5750600061287c565b506001600082138082146139b55780156139d4576139ee565b6001600160ff1b038390048311156139cf576139cf613beb565b6139ee565b6001600160ff1b038390058312156139ee576139ee613beb565b50808316156139fa5750805b613a0a8360011c83840283613918565b600082136001600160ff1b0382900483111615613a2957613a29613beb565b60008212600160ff1b82900583121615613a4557613a45613beb565b029392505050565b60006136b860ff841683613965565b60006001600160ff1b0381841382841380821686840486111615613a8257613a82613beb565b600160ff1b84871282811687830589121615613aa057613aa0613beb565b858712925087820587128484161615613abb57613abb613beb565b87850587128184161615613ad157613ad1613beb565b505050929093029392505050565b6000816000190483118215151615613af957613af9613beb565b500290565b60008083128015600160ff1b850184121615613b1c57613b1c613beb565b6001600160ff1b0384018313811615613b3757613b37613beb565b50500390565b600082821015613b4f57613b4f613beb565b500390565b60005b83811015613b6f578181015183820152602001613b57565b83811115613b7e576000848401525b50505050565b600081613b9357613b93613beb565b506000190190565b600181811c90821680613baf57607f821691505b6020821081141561338057634e487b7160e01b600052602260045260246000fd5b6000600019821415613be457613be4613beb565b5060010190565b634e487b7160e01b600052601160045260246000fd5b634e487b7160e01b600052601260045260246000fd5b634e487b7160e01b600052604160045260246000fdfe2a2a2a2a2a2a2a2a2a2a2a2a2a2a2a2a2a2a2a2a2a2a2a2a2a2a2a2a2a2a2a2a2a20524553554c54202a2a2a2a2a2a2a2a2a2a2a2a2a2a2a2a2a2a2a262626262620616464696e67206e6577207072696f7269747920626c6f636b20666f72207475706c653a20494e495449414c205455504c4520574153204e4f54204153534947454e44205354415254494e47204f564552262626262620616464696e67206e6577207072696f7269747920626c6f636b20666f72207365727665723a206265666f726520666f72206c6f6f70207475706c65207072696f72697469657320a26469706673582212208bd791479daf42a0e83bfbd37d7ae038f976ba604f4f4fee5396288015c6caa164736f6c63430008040033",
    "sourcePath": "/home/hamex/University/project/sample_smart_contract/contracts/AuctionManager.sol",
    "compiler": {
        "name": "solc",
        "version": "0.8.4+commit.c7e474f2"
    },
    "functionHashes": {
        "Test()": "a163a624",
        "auctionResultTuple(uint256)": "e673daf4",
        "registerMobileTask(uint256,uint256,uint256,uint256,uint256,uint256,uint256,uint256,uint256,uint256,uint256)": "0f7e14b3",
        "registerServerNode(string,uint256,uint256,uint256,uint256)": "966f63af"
    },
    "gasEstimates": {
        "creation": {
            "codeDepositCost": "3136600",
            "executionCost": "3467",
            "totalCost": "3140067"
        },
        "external": {
            "Test()": "infinite",
            "auctionResultTuple(uint256)": "infinite",
            "registerMobileTask(uint256,uint256,uint256,uint256,uint256,uint256,uint256,uint256,uint256,uint256,uint256)": "infinite",
            "registerServerNode(string,uint256,uint256,uint256,uint256)": "infinite"
        },
        "internal": {
            "_sendLogPayload(bytes memory)": "infinite",
            "addMobilePriorityBlockSorted(struct AuctionManager.MobilePriorityBlock memory,string memory)": "infinite",
            "addServerPriorityBlockSorted(struct AuctionManager.ServerPriorityBlock memory,uint256)": "infinite",
            "calcAuctionResult(struct AuctionManager.Auction storage pointer,uint256)": "infinite",
            "createServerPriorities(struct AuctionManager.ServerNode memory)": "infinite",
            "createTuplePriorities(struct AuctionManager.MobileTask memory)": "infinite",
            "createTupleRequireMips(struct AuctionManager.ServerNode memory)": "infinite",
            "getTupleMipsOnServer(struct AuctionManager.ServerNode memory,struct AuctionManager.MobileTask memory)": "infinite",
            "log(string memory)": "infinite",
            "log(string memory,bool)": "infinite",
            "log(string memory,string memory)": "infinite",
            "log(string memory,string memory,string memory)": "infinite",
            "log(string memory,string memory,uint256)": "infinite",
            "log(string memory,uint256)": "infinite",
            "log(string memory,uint256,string memory)": "infinite",
            "log(string memory,uint256,uint256)": "infinite",
            "log(uint256)": "infinite",
            "log2(uint256)": "infinite",
            "serverCost(struct AuctionManager.ServerNode memory,struct AuctionManager.MobileTask memory)": "infinite",
            "sqrt(uint256)": "infinite",
            "tupleCost(struct AuctionManager.MobileTask memory,struct AuctionManager.ServerNode memory)": "infinite",
            "updateServerPriorities(struct AuctionManager.MobileTask memory)": "infinite",
            "updateTuplePriorities(struct AuctionManager.ServerNode memory)": "infinite",
            "updateTupleRequireMips(struct AuctionManager.MobileTask memory)": "infinite"
        }
    }
}